:100000000C9445000C94DC070C94DF060C94DC0780
:100010000C94DC070C94DC070C94DC070C94DE03D6
:100020000C949B040C94DC070C9417040C9443046C
:100030000C946F040C94DC070C9487020C94DC077E
:100040000C94DC070C94DC070C94DC070C94DC07A4
:100050000C94DC070C945D060C94D0060C94C1063D
:100060000C94DC070C94DC070C94DC070C94DC0784
:100070000C94DC070C94DC073800383780383738AC
:100080003F000FCA383F3841800011241FBECFEF18
:10009000CDBFDFE3DEBFE8E7F0E040E017C0B59199
:1000A000A59135912591059107FD0CC095918591FC
:1000B000EF01F92FE82F05900D92A217B307D9F79A
:1000C000FE0104C01D92A217B307E1F7E938F40757
:0E00D00031F70E94DB020C946D00F894FFCF14
:1000DE004F925F926F927F928F929F92AF92BF924A
:1000EE00CF92DF92EF92FF920F931F93CF93DF93F6
:1000FE004C01181619060CF042C0C0E0D0E0C12C1D
:10010E00D12C7601712C612C512C412C0E94CD05E5
:10011E002FEF31EA4DE151E40E94CC072CE338E891
:10012E0048EF50E40E947A0723EC35EF4CE151E49E
:10013E000E94CC0720E030E04AE754E40E94C80752
:10014E00A62EB72E082F192F20E030E040E85FE3EF
:10015E000E94BB07181624F0A72CB62C052D142DC3
:10016E002A2D3B2D402F512FC701B6010E947A0731
:10017E006B017C0121968C169D0641F603C0C12CA5
:10018E00D12C7601B401990C880B990B0E94670350
:10019E009B01AC01C701B6010E94C80760931838D5
:1001AE007093193880931A3890931B38DF91CF9142
:1001BE001F910F91FF90EF90DF90CF90BF90AF9077
:0E01CE009F908F907F906F905F904F9008955C
:1001DC0010C00E94870758F00E94800740F029F455
:1001EC005F3F29F00C94A10751110C948F070C94CC
:1001FC00D9070E948C0568F39923B1F3552391F329
:10020C00951B550BBB27AA2762177307840738F079
:10021C009F5F5F4F220F331F441FAA1FA9F335D0D6
:10022C000E2E3AF0E0E832D091505040E695001C8A
:10023C00CAF72BD0FE2F29D0660F771F881FBB1F44
:10024C00261737074807AB07B0E809F0BB0B802D22
:10025C00BF01FF2793585F4F3AF09E3F510578F04E
:10026C000C94A1070C948F075F3FE4F3983ED4F3F2
:10027C00869577956795B795F7959F5FC9F7880F22
:10028C00911D9695879597F90895E1E0660F771F74
:10029C00881FBB1F621773078407BA0720F0621B05
:0E02AC00730B840BBA0BEE1F88F7E0950895D4
:1002BA000FC00E94800738F00E94870720F095231C
:1002CA0011F00C94A1070C94D90711240C948F07F0
:1002DA000E948C0570F3959FC1F3950F50E0551F4E
:1002EA00629FF001729FBB27F00DB11D639FAA2781
:1002FA00F00DB11DAA1F649F6627B00DA11D661FD0
:10030A00829F2227B00DA11D621F739FB00DA11DF0
:10031A00621F839FA00D611D221F749F3327A00DAA
:10032A00611D231F849F600D211D822F762F6A2F46
:10033A0011249F5750409AF0F1F088234AF0EE0FAB
:10034A00FF1FBB1F661F771F881F91505040A9F7D8
:10035A009E3F510580F00C94A1070C948F075F3FD4
:10036A00E4F3983ED4F3869577956795B795F79514
:10037A00E7959F5FC1F7FE2B880F911D969587958C
:04038A0097F9089542
:10038E0011C00E94800738F00E94870720F039F4D0
:10039E009F3F19F426F40C94D9070EF4E095E7FB71
:1003AE000C94A107E92F0E948C0558F3BA17620727
:1003BE0073078407950720F079F4A6F50C948E0741
:1003CE000EF4E0950B2EBA2FA02D0B01B901900162
:1003DE000C01CA01A0011124FF27591B99F0593FA6
:1003EE0050F4503E68F11A16F040A22F232F342FEE
:1003FE004427585FF3CF469537952795A795F0403C
:10040E005395C9F77EF41F16BA0B620B730B840B50
:10041E00BAF09150A1F0FF0FBB1F661F771F881F08
:10042E00C2F70EC0BA0F621F731F841F48F4879560
:10043E0077956795B795F7959E3F08F0B0CF939552
:0E044E00880F08F09927EE0F9795879508956F
:10045C00CF93DF930E942506C0E0D4E080E288832E
:10046C00A0E2B4E01C92E0E4F4E084E080831C821F
:10047C0014968C9314971482188A198A1A8A1B8AD8
:10048C008C8B8D8B8E8B8F8B50961C92509751969C
:10049C001C92519752961C92529753961C925397BA
:1004AC0082E054968C93549755961C925597569679
:1004BC001C92569757961C92108A118A128A138A8C
:1004CC00148A158A168A178AE0EEF5E011821082DA
:1004DC0013821482158212828EED97E08093353848
:1004EC00909336388FED97E080933338909334386F
:1004FC0080EE97E08093313890933238DF91CF9132
:02050C00089550
:10050E001F920F920FB60F9211242F933F934F937A
:10051E005F936F937F938F939F93AF93BF93EF935D
:10052E00FF930E941307882361F00E944A0783E01D
:10053E008093AA080E94AC07882329F10E943A07EB
:10054E0022C00E9495078823B1F00E94AC07882331
:10055E0061F00E94B107811103C00E943A0713C0D7
:10056E000E9472070E9428070EC00E94420783E075
:10057E008093AA0808C00E94FB06882321F00E94DF
:10058E0052070E941E07FF91EF91BF91AF919F916D
:10059E008F917F916F915F914F913F912F910F901E
:0805AE000FBE0F901F9018957D
:1005B6000E9475060E94410610921038109211385A
:1005C600109212381092133810920A3810920B3883
:1005D60010920C3810920D382FE382E49FE02150E0
:1005E60080409040E1F700C000000E94F3048AE0DA
:1005F60090E00E946F000E9420030E9431076093E2
:100606000A3870930B3880930C3890930D380E94FB
:10061600A203609310387093113880931238909328
:1006260013380E94F3042FE78AE196E021508040B8
:0A0636009040E1F700C00000DECFA5
:1006400080E090E00E94A707109226381092273889
:100650001092243810922538E0E2F4E08489887FF3
:100660008260848B2FE38DE093E0215080409040A6
:10067000E1F700C000008489887F848B8091263850
:1006800090912738892B81F020E030E040E251E45E
:1006900060912038709121388091223890912338D0
:1006A0000E94BB07882384F41092203810922138CE
:1006B000109222381092233810921C3810921D3854
:0A06C00010921E3810921F380895A2
:1006CA00E89409C097FB3EF49095809570956195E2
:1006DA007F4F8F4F9F4F9923A9F0F92F96E9BB2798
:1006EA009395F695879577956795B795F111F8CF14
:1006FA00FAF4BB0F11F460FF1BC06F5F7F4F8F4F7F
:10070A009F4F16C0882311F096E911C0772321F074
:10071A009EE8872F762F05C0662371F096E8862F0C
:10072A0070E060E02AF09A95660F771F881FDAF763
:0A073A00880F9695879597F90895AA
:10074400CF92DF92EF92FF920E94CD052FEF31EA14
:100754004DE151E40E94CC072CE338E848EF50E423
:100764000E947A0723EC35EF4CE151E40E94CC0758
:1007740020E030E04AE754E40E94C807209118388A
:100784003091193840911A3850911B380E947907DA
:100794006B017C0120E030E040E85FE30E94BB078E
:1007A40018161CF0C12CD12C7601C701B601FF909C
:0807B400EF90DF90CF90089553
:1007BC001F920F920FB60F9211242F933F934F93CA
:1007CC005F936F937F938F939F93AF93BF93EF93AD
:1007DC00FF933C9B05C0E0913538F0913638099574
:1007EC00399B05C0E0913338F09134380995389B2A
:1007FC0005C0E0913138F091323809958FEF87B907
:10080C00FF91EF91BF91AF919F918F917F916F91DC
:10081C005F914F913F912F910F900FBE0F901F90B2
:02082C0018951D
:10082E001F920F920FB60F9211242F933F934F9357
:10083E005F936F937F938F939F93AF93BF93EF933A
:10084E00FF93E0913D38F0913E38309709F00995CD
:10085E0080E180930B0AFF91EF91BF91AF919F9131
:10086E008F917F916F915F914F913F912F910F904B
:08087E000FBE0F901F901895AA
:100886001F920F920FB60F9211242F933F934F93FF
:100896005F936F937F938F939F93AF93BF93EF93E2
:1008A600FF93E0913B38F0913C38309709F0099579
:1008B60080E280930B0AFF91EF91BF91AF919F91D8
:1008C6008F917F916F915F914F913F912F910F90F3
:0808D6000FBE0F901F90189552
:1008DE001F920F920FB60F9211242F933F934F93A7
:1008EE005F936F937F938F939F93AF93BF93EF938A
:1008FE00FF93E0913938F0913A38309709F0099525
:10090E0080E480930B0AFF91EF91BF91AF919F917D
:10091E008F917F916F915F914F913F912F910F909A
:08092E000FBE0F901F901895F9
:100936001F920F920FB60F9211242F933F934F934E
:100946005F936F937F938F939F93AF93BF93EF9331
:10095600FF93E0913738F0913838309709F00995D0
:1009660081E080930B0AFF91EF91BF91AF919F9128
:100976008F917F916F915F914F913F912F910F9042
:080986000FBE0F901F901895A1
:10098E00E0EAF8E010821282148685E1868781EC17
:10099E00818712861586138686EB97E080930E3834
:1009AE0090930F388BE195E080930638909307383B
:1009BE00109204381092053886ED97E0809308382F
:1009CE009093093810920238109203381092003822
:0809DE001092013880E0089539
:1009E600CF93DF93C0E0D6E080E58A8340E363E3FC
:1009F60080E00E94080624E52A830E9465039B0185
:100A0600AC016FE672E183E89FE30E94C80720E02D
:100A160030E040E057E40E94CC07609314387093AE
:100A260015388093163890931738DF91CF91089533
:100A360080912E38811104C08AE00E94D307089560
:100A460080913F3890914038892B11F40E948A0694
:100A5600E0912F38F091303880913F3890914038AE
:100A6600E80FF91F80810E94D30780913F3890914B
:0E0A76004038019680933F38909340380895A1
:100A840040E068ED88E790E00E94C00740E068ED30
:100A94008CE790E00E94C00740E068ED80E790E0BA
:100AA4000E94C00741E068ED81E690E00E94C00723
:100AB40040E068ED80E690E00E94C00740E068ED09
:0C0AC40082E690E00E94C00780E00895E8
:100AD000990F0008550FAA0BE0E8FEEF161617064F
:100AE000E807F907C0F012161306E407F50798F0B7
:100AF000621B730B840B950B39F40A2661F0232BD0
:100B0000242B252B21F408950A2609F4A140A6954B
:080B10008FEF811D811D089586
:100B180057FD9058440F551F59F05F3F71F04795A6
:100B2800880F97FB991F61F09F3F79F0879508958B
:100B3800121613061406551FF2CF4695F1DF08C0AA
:100B4800161617061806991FF1CF869571056105C7
:040B58000894089560
:100B5C00E0E0FAE081E090E080A791A782A793A75C
:100B6C0084A795A710A211A211821282138214825B
:100B7C00158216821782168680E681871286138666
:0E0B8C0016A217A217868BE0808380E00895E2
:100B9A0046E064E081E00E9408060E94670324E1BF
:100BAA003EEA43EA50E40E94CC072091143830917F
:100BBA00153840911638509117380E94C80720E01E
:0C0BCA0030E040E251E40E9479070895F9
:100BD600E0E0F6E088E081838AE0818784E582832D
:100BE60013828CE0808781E88387178282ED828773
:100BF600148284E4848786E48587168E178E148E85
:0A0C0600158E81E2808380E00895DE
:100C1000262FE0E0F6E092859168928730E4839F8A
:100C2000C0011124642F682B822F0E9462070E944A
:100C3000C4078823E1F3E0E0F6E0608971898289E6
:0A0C40009389258121602583089522
:100C4A00E0E1F4E0808188608193E83184E0F8078C
:100C5A00C9F7E0E3F4E0808188608193E83384E0B7
:100C6A00F807C9F7E0E5F4E0808188608193E83508
:080C7A0084E0F807C9F70895B2
:100C820080E1809322041092263810922738109225
:100C92002438109225381092203810922138109260
:100CA20022381092233810921C3810921D3810925C
:080CB2001E3810921F3808954E
:100CBA001F920F920FB60F9211248F93EF93FF9307
:100CCA00E0E0F6E080E2858380E1858388E0858341
:100CDA00FF91EF918F910F900FBE0F901F90189573
:100CEA000E942E020E9407070E9442050E946A077C
:100CFA000E94C7040E949B070E94EB050E94AE0552
:0A0D0A000E94EE060E949E06089566
:100D140080912E38863449F0843569F480E198E373
:100D240080932F389093303808958AE098E3809325
:080D34002F3890933038089528
:100D3C00E0E8FAE0148615861286138683E1818337
:100D4C00108681E0848315821682118685E080836B
:040D5C0080E0089596
:100D6000092E0394000C11F4882352F0BB0F40F4B9
:100D7000BF2B11F460FF04C06F5F7F4F8F4F9F4FF9
:020D80000895D4
:100D82001F920F920FB60F9211248F9382E08093DD
:0E0D920005068F910F900FBE0F901F901895C1
:100DA0001F920F920FB60F9211248F9381E08093C0
:0E0DB00005068F910F900FBE0F901F901895A3
:100DBE001F920F920FB60F9211248F9381E08093A2
:0E0DCE008A008F910F900FBE0F901F90189506
:100DDC0040E068ED80E191E00E94C007E0E1F1E0C5
:0A0DEC0012821382789480E00895CB
:100DF6008091AB0886FF05C08091AB088095817015
:080E060001C080E08170089535
:100E0E0040E068ED80E890E00E94C007E0E8F0E086
:080E1E001186108680E00895A2
:100E26008091AB0886FF04C08091AB08817001C039
:060E360080E081700895C8
:100E3C00E0EAF8E082E08287928581E0911101C0BE
:040E4C0080E00895A5
:100E5000E0EAF8E08385806C838782E0828783857F
:020E60000895F3
:100E620060911C3870911D3880911E3890911F3806
:020E72000895E1
:100E7400E0910638F0910738309709F00995089504
:100E8400E0910E38F0910F38309709F009950895E4
:100E9400E0910438F0910538309709F009950895E8
:100EA400E0910838F0910938309709F009950895D0
:100EB400E0EAF8E0858782858360828785850895E6
:100EC400E0E0F6E0848765878285816882870895FB
:100ED40040E068ED80E590E00E94C00780E008955E
:0E0EE40010923F381092403810922E38089528
:0E0EF2005058BB27AA270E94C7010C94B006D7
:0E0F000000240A94161617061806090608950E
:0E0F0E0000240A941216130614060506089510
:0E0F1C00E894BB2766277727CB0197F9089545
:0C0F2A008091AB08881F8827881F08955D
:0C0F3600E0EAF0E01082118280E00895F3
:0C0F420097F99F6780E870E060E0089578
:0A0F4E0080938A0A90938B0A08959D
:0A0F58008091AB0886958170089522
:0A0F62008091AB088295817008951C
:0A0F6C000E94D00780932E380895EC
:0A0F76000E94680508F481E0089568
:080F8000FC0164BF40830895E9
:080F88008091050681700895B7
:080F90000E94EE000C94B00673
:080F98000E945D010C94B006FB
:060FA0008091AD080895E8
:060FA6000E945A070895A5
:060FAC000E9428070895D1
:060FB2009FEF80EC0895A2
:040FB8000C94000095
:020FBC00089596
:020FBE00089594
:020FC000089592
:020FC200089590
:020FC40008958E
:020FC60008958C
:020FC80008958A
:020FCA00E4073A
:020FCC00E30739
:020FCE00E20738
:020FD000E10737
:02000004008278
:090000000000020000C40700002A
:040000050080382A15
:00000001FF
