:100000000C9445000C948F070C948E060C948F076B
:100010000C948F070C948F070C948F070C949D03FE
:100020000C9492040C948F070C940E040C943A04D4
:100030000C9466040C948F070C9489020C948F071F
:100040000C948F070C948F070C948F070C948F07D8
:100050000C948F070C940E060C947F060C9470067B
:100060000C948F070C948F070C948F070C948F07B8
:100070000C948F070C948F0738003833803833384E
:100080003B000F30383B383D800011241FBECFEFBE
:10009000CDBFDFE3DEBFE8E7F0E040E017C0B59199
:1000A000A59135912591059107FD0CC095918591FC
:1000B000EF01F92FE82F05900D92A217B307D9F79A
:1000C000FE0104C01D92A217B307E1F7E938F40757
:0E00D00031F70E94D6030C946D00F894FFCF18
:1000DE004F925F926F927F928F929F92AF92BF924A
:1000EE00CF92DF92EF92FF920F931F93CF93DF93F6
:1000FE004C01181619060CF044C0C0E0D0E0C12C1B
:10010E00D12C7601712C612C512C412C0E94D706DA
:10011E000E9462032FEF31EA4DE151E40E947F0706
:10012E002CE338E848EF50E40E94330723EC35EF18
:10013E004CE151E40E947F0720E030E04AE754E4AE
:10014E000E947B07A62EB72E082F192F20E030E035
:10015E0040E85FE30E946E07181624F0A72CB62C19
:10016E00052D142D2A2D3B2D402F512FC701B601E1
:10017E000E9433076B017C0121968C169D0631F689
:10018E0003C0C12CD12C7601B401990C880B990BAC
:10019E000E9462039B01AC01C701B6010E947B075E
:1001AE0060931438709315388093163890931738DF
:1001BE00DF91CF911F910F91FF90EF90DF90CF9035
:1001CE00BF90AF909F908F907F906F905F904F9069
:0201DE00089582
:1001E00010C00E94400758F00E94390740F029F4DF
:1001F0005F3F29F00C94540751110C9448070C945C
:100200008C070E945B0568F39923B1F3552391F3A2
:10021000951B550BBB27AA2762177307840738F075
:100220009F5F5F4F220F331F441FAA1FA9F335D0D2
:100230000E2E3AF0E0E832D091505040E695001C86
:10024000CAF72BD0FE2F29D0660F771F881FBB1F40
:10025000261737074807AB07B0E809F0BB0B802D1E
:10026000BF01FF2793585F4F3AF09E3F510578F04A
:100270000C9454070C9448075F3FE4F3983ED4F382
:10028000869577956795B795F7959F5FC9F7880F1E
:10029000911D9695879597F90895E1E0660F771F70
:1002A000881FBB1F621773078407BA0720F0621B01
:0E02B000730B840BBA0BEE1F88F7E0950895D0
:1002BE000FC00E94390738F00E94400720F09523A6
:1002CE0011F00C9454070C948C0711240C944807CD
:1002DE000E945B0570F3959FC1F3950F50E0551F7B
:1002EE00629FF001729FBB27F00DB11D639FAA277D
:1002FE00F00DB11DAA1F649F6627B00DA11D661FCC
:10030E00829F2227B00DA11D621F739FB00DA11DEC
:10031E00621F839FA00D611D221F749F3327A00DA6
:10032E00611D231F849F600D211D822F762F6A2F42
:10033E0011249F5750409AF0F1F088234AF0EE0FA7
:10034E00FF1FBB1F661F771F881F91505040A9F7D4
:10035E009E3F510580F00C9454070C9448075F3F64
:10036E00E4F3983ED4F3869577956795B795F79510
:10037E00E7959F5FC1F7FE2B880F911D9695879588
:04038E0097F908953E
:1003920011C00E94390738F00E94400720F039F45A
:1003A2009F3F19F426F40C948C070EF4E095E7FBBA
:1003B2000C945407E92F0E945B0558F3BA176207A1
:1003C20073078407950720F079F4A6F50C94470784
:1003D2000EF4E0950B2EBA2FA02D0B01B90190015E
:1003E2000C01CA01A0011124FF27591B99F0593FA2
:1003F20050F4503E68F11A16F040A22F232F342FEA
:100402004427585FF3CF469537952795A795F04037
:100412005395C9F77EF41F16BA0B620B730B840B4C
:10042200BAF09150A1F0FF0FBB1F661F771F881F04
:10043200C2F70EC0BA0F621F731F841F48F487955C
:1004420077956795B795F7959E3F08F0B0CF93954E
:0E045200880F08F09927EE0F9795879508956B
:10046000CF93DF930E94D605C0E0D4E080E288837A
:10047000A0E2B4E01C92E0E4F4E084E080831C821B
:1004800014968C9314971482188A198A1A8A1B8AD4
:100490008C8B1D8A8E8B1F8A50961C92509751967A
:1004A0001C92519752961C92529753961C925397B6
:1004B00082E054968C93549755961C925597569675
:1004C0001C92569757961C92108A118A128A138A88
:1004D000148A158A168A178AE0EEF5E011821082D6
:1004E000138214821582128281E997E08093313859
:1004F0009093323882E997E080932F389093303888
:1005000083E997E080932D3890932E38DF91CF9137
:0205100008954C
:100512001F920F920FB60F9211242F933F934F9376
:100522005F936F937F938F939F93AF93BF93EF9359
:10053200FF930E94C206882361F00E94030783E0B2
:100542008093AA080E945F07882329F10E94F3067C
:1005520022C00E944E078823B1F00E945F078823C1
:1005620061F00E946407811103C00E94F30613C068
:100572000E942B070E94E1060EC00E94FB0683E048
:100582008093AA0808C00E94AA06882321F00E942C
:100592000B070E94CD06FF91EF91BF91AF919F9102
:1005A2008F917F916F915F914F913F912F910F901A
:0805B2000FBE0F901F90189579
:1005BA0080E090E00E945A07109222381092233865
:1005CA001092203810922138E0E2F4E08489887F82
:1005DA008260848B2FE38DE093E02150804090402D
:1005EA00E1F700C000008489887F848B80912238DB
:1005FA0090912338892B81F020E030E040E251E4E9
:10060A0060911C3870911D3880911E3890911F3866
:10061A000E946E07882384F410921C3810921D38A9
:10062A0010921E3810921F381092183810921938EA
:0A063A0010921A3810921B38089530
:10064400CF92DF92EF92FF920E94D7060E9462033C
:100654002FEF31EA4DE151E40E947F072CE338E8A3
:1006640048EF50E40E94330723EC35EF4CE151E4AA
:100674000E947F0720E030E04AE754E40E947B07B1
:10068400209114383091153840911638509117380C
:100694000E9432076B017C0120E030E040E85FE318
:1006A4000E946E0718161CF0C12CD12C7601C701CC
:0C06B400B601FF90EF90DF90CF9008950A
:1006C000E89409C097FB3EF49095809570956195EC
:1006D0007F4F8F4F9F4F9923A9F0F92F96E9BB27A2
:1006E0009395F695879577956795B795F111F8CF1E
:1006F000FAF4BB0F11F460FF1BC06F5F7F4F8F4F89
:100700009F4F16C0882311F096E911C0772321F07E
:100710009EE8872F762F05C0662371F096E8862F16
:1007200070E060E02AF09A95660F771F881FDAF76D
:0A073000880F9695879597F90895B4
:10073A001F920F920FB60F9211242F933F934F934C
:10074A005F936F937F938F939F93AF93BF93EF932F
:10075A00FF933C9B05C0E0913138F09132380995FE
:10076A00399B05C0E0912F38F09130380995389BB4
:10077A0005C0E0912D38F0912E3809958FEF87B991
:10078A00FF91EF91BF91AF919F918F917F916F915F
:10079A005F914F913F912F910F900FBE0F901F9035
:0207AA001895A0
:1007AC000E943A060E94F2051092103810921138ED
:1007BC00109212381092133810920A3810920B388B
:1007CC0010920C3810920D388AE090E00E946F0065
:1007DC000E94DD020E94EA0660930A3870930B387F
:1007EC0080930C3890930D380E942203609310383C
:1007FC007093113880931238909313382FE78AE155
:10080C0096E0215080409040E1F700C00000E0CF1E
:10081C001F920F920FB60F9211242F933F934F9369
:10082C005F936F937F938F939F93AF93BF93EF934C
:10083C00FF93E0913938F0913A38309709F00995E7
:10084C0080E180930B0AFF91EF91BF91AF919F9143
:10085C008F917F916F915F914F913F912F910F905D
:08086C000FBE0F901F901895BC
:100874001F920F920FB60F9211242F933F934F9311
:100884005F936F937F938F939F93AF93BF93EF93F4
:10089400FF93E0913738F0913838309709F0099593
:1008A40080E280930B0AFF91EF91BF91AF919F91EA
:1008B4008F917F916F915F914F913F912F910F9005
:0808C4000FBE0F901F90189564
:1008CC001F920F920FB60F9211242F933F934F93B9
:1008DC005F936F937F938F939F93AF93BF93EF939C
:1008EC00FF93E0913538F0913638309709F009953F
:1008FC0080E480930B0AFF91EF91BF91AF919F9190
:10090C008F917F916F915F914F913F912F910F90AC
:08091C000FBE0F901F9018950B
:100924001F920F920FB60F9211242F933F934F9360
:100934005F936F937F938F939F93AF93BF93EF9343
:10094400FF93E0913338F0913438309709F00995EA
:1009540081E080930B0AFF91EF91BF91AF919F913A
:100964008F917F916F915F914F913F912F910F9054
:080974000FBE0F901F901895B3
:10097C00E0EAF8E010821282148685E1868781EC29
:10098C00818712861586138689E697E080930E3848
:10099C0090930F388AEE94E0809306389093073842
:1009AC00109204381092053889E897E08093083843
:1009BC009093093810920238109203381092003834
:0809CC001092013880E008954B
:1009D40080912A38811104C08AE00E948607089514
:1009E40080913B3890913C38892B11F40E94260663
:1009F400E0912B38F0912C3880913B3890913C3821
:100A0400E80FF91F80810E94860780913B389091FE
:0E0A14003C38019680933B3890933C3808950F
:100A220040E068ED88E790E00E94730740E068EDDF
:100A32008CE790E00E94730740E068ED80E790E069
:100A42000E94730741E068ED81E690E00E9473071F
:100A520040E068ED80E690E00E94730740E068EDB8
:0C0A620082E690E00E94730780E0089597
:100A6E00990F0008550FAA0BE0E8FEEF16161706B1
:100A7E00E807F907C0F012161306E407F50798F019
:100A8E00621B730B840B950B39F40A2661F0232B32
:100A9E00242B252B21F408950A2609F4A140A695AE
:080AAE008FEF811D811D0895E9
:100AB60057FD9058440F551F59F05F3F71F0479509
:100AC600880F97FB991F61F09F3F79F087950895EE
:100AD600121613061406551FF2CF4695F1DF08C00D
:100AE600161617061806991FF1CF8695710561052A
:040AF60008940895C3
:100AFA00E0E0FAE081E090E080A791A782A793A7BF
:100B0A0084A795A710A211A21182128213821482BD
:100B1A00158216821782168680E6818712861386C8
:0E0B2A0016A217A217868BE0808380E0089544
:100B3800E0E0F6E088E081838AE0818784E58283CB
:100B480013828CE0808781E88387178282ED828711
:100B5800148284E4848786E48587168E178E148E23
:0A0B6800158E81E2808380E008957D
:100B7200262FE0E0F6E092859168928730E4839F29
:100B8200C0011124642F682B822F0E941B070E9430
:100B920077078823E1F3E0E0F6E0608971898289D2
:0A0BA20093892581216025830895C1
:100BAC00E0E1F4E0808188608193E83184E0F8072B
:100BBC00C9F7E0E3F4E0808188608193E83384E056
:100BCC00F807C9F7E0E5F4E0808188608193E835A7
:080BDC0084E0F807C9F7089551
:100BE40080E18093220410922238109223381092CC
:100BF40020381092213810921C3810921D3810920F
:100C04001E3810921F38109218381092193810920A
:080C14001A3810921B380895F4
:100C1C001F920F920FB60F9211248F93EF93FF93A5
:100C2C00E0E0F6E080E2858380E1858388E08583DF
:100C3C00FF91EF918F910F900FBE0F901F90189511
:100C4C0080912A38863449F0843569F480E198E340
:100C5C0080932B3890932C3808958AE098E38093F6
:080C6C002B3890932C380895F9
:100C74000E9430020E94B6060E9411050E942307BA
:100C84000E94BE040E949C050E947D050E949D0650
:060C94000E944D060895C8
:100C9A00E0E8FAE0148615861286138683E18183DA
:100CAA00108681E0848315821682118685E080830E
:040CBA0080E0089539
:100CBE00092E0394000C11F4882352F0BB0F40F45C
:100CCE00BF2B11F460FF04C06F5F7F4F8F4F9F4F9C
:020CDE00089577
:100CE0001F920F920FB60F9211248F9382E0809380
:0E0CF00005068F910F900FBE0F901F90189564
:100CFE001F920F920FB60F9211248F9381E0809363
:0E0D0E0005068F910F900FBE0F901F90189545
:100D1C001F920F920FB60F9211248F9381E0809344
:0E0D2C008A008F910F900FBE0F901F901895A8
:100D3A0040E068ED80E191E00E947307E0E1F1E0B4
:0A0D4A0012821382789480E008956D
:100D54008091AB0886FF05C08091AB0880958170B7
:080D640001C080E081700895D8
:100D6C0040E068ED80E890E00E947307E0E8F0E076
:080D7C001186108680E0089545
:100D84008091AB0886FF04C08091AB08817001C0DC
:060D940080E0817008956B
:100D9A00E0EAF8E082E08287928581E0911101C061
:040DAA0080E0089548
:100DAE0046E064E081E00E94B9056A50710981094C
:040DBE0091090895FA
:100DC200E0EAF8E08385806C838782E0828783850E
:020DD200089582
:100DD400609118387091193880911A3890911B38A5
:020DE400089570
:100DE600E0910638F0910738309709F00995089593
:100DF600E0910E38F0910F38309709F00995089573
:100E0600E0910438F0910538309709F00995089576
:100E1600E0910838F0910938309709F0099508955E
:100E2600E0EAF8E085878285836082878585089574
:100E3600E0E0F6E084876587828581688287089589
:100E460040E068ED80E590E00E94730780E0089539
:0E0E560010923B3810923C3810922A380895C2
:0E0E64005058BB27AA270E94C9010C945F06B4
:0E0E720000240A94161617061806090608959D
:0E0E800000240A94121613061406050608959F
:0E0E8E00E894BB2766277727CB0197F90895D4
:0C0E9C008091AB08881F8827881F0895EC
:0C0EA80097F99F6780E870E060E0089513
:0A0EB40080938A0A90938B0A089538
:0A0EBE008091AB08869581700895BD
:0A0EC8008091AB08829581700895B7
:0A0ED2000E94830780932A380895D8
:0A0EDC000E94370508F481E0089534
:080EE600FC0164BF4083089584
:080EEE00809105068170089552
:080EF6000E94F0000C945F065D
:080EFE000E945F010C945F06E5
:060F06008091AD08089582
:060F0C000E941307089586
:060F12000E94E1060895B3
:060F18009FEF80EC08953C
:040F1E000C9400002F
:020F2200089530
:020F240008952E
:020F260008952C
:020F280008952A
:020F2A00089528
:020F2C00089526
:020F2E00089524
:020F3000970721
:020F3200960720
:020F340095071F
:020F360094071E
:02000004008278
:090000000000020000C40700002A
:040000050080382619
:00000001FF
