:100000000C9442000C9449060C9445050C94490646
:100010000C9449060C9449060C9449060C94490624
:100020000C9449060C9449060C9449060C94490614
:100030000C9449060C9449060C94E2020C9449066F
:100040000C9449060C9449060C9449060C944906F4
:100050000C9449060C94D8040C9436050C9427058E
:100060000C9449060C9449060C9449060C944906D4
:100070000C9449060C9449063800382580382538F8
:1000800026000C9611241FBECFEFCDBFDFE3DEBFED
:10009000E8E7F0E040E017C0B591A59135912591D2
:1000A000059107FD0CC095918591EF01F92FE82F7F
:1000B00005900D92A217B307D9F7FE0104C01D9257
:1000C000A217B307E1F7E438F40731F70E94B7014C
:0800D0000C946A00F894FFCFC4
:1000D8008F929F92AF92BF92CF92DF92EF92FF9250
:1000E80060E3809125380E94F0040E9454058090B6
:1000F8001F3890902038A0902138B090223820E006
:1001080030E04AE754E40E94390620E030E040EF4E
:1001180052E40E94350620E030E040E850E40E94B6
:10012800EC05A50194010E94390620E030E040E882
:100138005DE30E9439066B017C0120E030E0A901F3
:100148000E9423068823DCF02DEC3CEC4CE85FE3AE
:10015800C501B4010E9439069B01AC01C701B60173
:100168000E9428061816ACF40F2EFDE2CF2EF2EBF3
:10017800DF2EF1E8EF2EFFE3FF2EF02D0AC00F2E41
:10018800FDE2CF2EF2EBDF2EF1E8EF2EFFE3FF2E9C
:10019800F02D20E030E543EC57E4C701B6010E949A
:1001A8003906FF90EF90DF90CF90BF90AF909F906F
:0401B8008F90089587
:1001BC0010C00E94FA0558F00E94F30540F029F493
:1001CC005F3F29F00C940E0651110C9402060C940E
:1001DC0046060E947F0468F39923B1F3552391F3EB
:1001EC00951B550BBB27AA2762177307840738F09A
:1001FC009F5F5F4F220F331F441FAA1FA9F335D0F7
:10020C000E2E3AF0E0E832D091505040E695001CAA
:10021C00CAF72BD0FE2F29D0660F771F881FBB1F64
:10022C00261737074807AB07B0E809F0BB0B802D42
:10023C00BF01FF2793585F4F3AF09E3F510578F06E
:10024C000C940E060C9402065F3FE4F3983ED4F334
:10025C00869577956795B795F7959F5FC9F7880F42
:10026C00911D9695879597F90895E1E0660F771F94
:10027C00881FBB1F621773078407BA0720F0621B25
:0E028C00730B840BBA0BEE1F88F7E0950895F4
:10029A000FC00E94F30538F00E94FA0520F095235A
:1002AA0011F00C940E060C94460611240C940206C6
:1002BA000E947F0470F3959FC1F3950F50E0551F7C
:1002CA00629FF001729FBB27F00DB11D639FAA27A1
:1002DA00F00DB11DAA1F649F6627B00DA11D661FF0
:1002EA00829F2227B00DA11D621F739FB00DA11D11
:1002FA00621F839FA00D611D221F749F3327A00DCB
:10030A00611D231F849F600D211D822F762F6A2F66
:10031A0011249F5750409AF0F1F088234AF0EE0FCB
:10032A00FF1FBB1F661F771F881F91505040A9F7F8
:10033A009E3F510580F00C940E060C9402065F3F16
:10034A00E4F3983ED4F3869577956795B795F79534
:10035A00E7959F5FC1F7FE2B880F911D96958795AC
:04036A0097F9089562
:10036E000E94050580E896EEA5ECB7E48093183858
:10037E0090931938A0931A38B0931B38809306388F
:10038E0090930738A0930838B093093880930C38AF
:10039E0090930D38A0930E38B0930F388093123887
:1003AE0090931338A0931438B09315382FE382E44A
:1003BE009FE0215080409040E1F700C0000083E0B4
:1003CE0090E00E94870260931838709319388093DA
:1003DE001A3890931B3884E090E00E948702609355
:1003EE00063870930738809308389093093889E05F
:1003FE0090E00E94870260930C3870930D388093C2
:10040E000E3890930F388AE090E00E948702609336
:10041E0012387093133880931438909315382FE553
:10042E008EEA9AE0215080409040E1F700C0000033
:02043E00C6CF27
:1004400011C00E94F30538F00E94FA0520F039F43B
:100450009F3F19F426F40C9446060EF4E095E7FB52
:100460000C940E06E92F0E947F0458F3BA17620716
:1004700073078407950720F079F4A6F50C9401061C
:100480000EF4E0950B2EBA2FA02D0B01B9019001AF
:100490000C01CA01A0011124FF27591B99F0593FF3
:1004A00050F4503E68F11A16F040A22F232F342F3B
:1004B0004427585FF3CF469537952795A795F04089
:1004C0005395C9F77EF41F16BA0B620B730B840B9E
:1004D000BAF09150A1F0FF0FBB1F661F771F881F56
:1004E000C2F70EC0BA0F621F731F841F48F48795AE
:1004F00077956795B795F7959E3F08F0B0CF9395A0
:0E050000880F08F09927EE0F979587950895BC
:10050E0084309105D1F01CF4039739F046C0893040
:10051E00910519F10A9789F140C088E0809325383A
:10052E0080E090E0A0E8B0E480931F3890932038EC
:10053E00A0932138B09322383BC083E080932538B6
:10054E0080E090E0A0E8B0E480931F3890932038CC
:10055E00A0932138B09322382BC085E080932538A4
:10056E0080E090E0A0E2B0E480931F3890932038B2
:10057E00A0932138B09322381BC087E08093253892
:10058E0080E090E0A0E2B0E480931F389093203892
:10059E00A0932138B09322380BC080E38093253886
:1005AE0010921F3810922038109221381092223853
:0605BE000E946C0008958C
:1005C4001F920F920FB60F9211242F933F934F93C4
:1005D4005F936F937F938F939F93AF93BF93EF93A7
:1005E400FF930E948805882361F00E94BE0583E082
:1005F4008093AA080E941406882329F10E94AE055C
:1006040022C00E9408068823B1F00E9414068823A1
:1006140061F00E941906811103C00E94AE0513C047
:100624000E94E5050E949D050EC00E94B60583E068
:100634008093AA0808C00E947005882321F00E94B4
:10064400C6050E949305FF91EF91BF91AF919F91D1
:100654008F917F916F915F914F913F912F910F9067
:080664000FBE0F901F901895C6
:10066C00CF93DF930E94A104C0E0D4E01882A0E2F3
:10067C00B4E01C92E0E4F4E010821C8284E0149656
:10068C008C9314971482188A198A8A8B8B8B8C8B77
:10069C008D8B8E8B8F8B50961C92509751961C92F3
:1006AC00519752961C92529753961C92539754966C
:1006BC008C93549755968C93559756961C925697A7
:1006CC0057961C92108A118A128A138A148A158AD8
:1006DC00168A178AE0EEF5E01182108213821482DA
:0A06EC0015821282DF91CF9108956C
:1006F600E89409C097FB3EF49095809570956195B6
:100706007F4F8F4F9F4F9923A9F0F92F96E9BB276B
:100716009395F695879577956795B795F111F8CFE7
:10072600FAF4BB0F11F460FF1BC06F5F7F4F8F4F52
:100736009F4F16C0882311F096E911C0772321F048
:100746009EE8872F762F05C0662371F096E8862FE0
:1007560070E060E02AF09A95660F771F881FDAF737
:0A076600880F9695879597F908957E
:10077000E0EAF8E01082128281E0848787E18687D0
:1007800081EC81871286158613868EE196E0809330
:100790001638909317388EE094E080930A3890933F
:1007A0000B38109204381092053883E496E0809359
:1007B000103890931138109202381092033810922A
:0A07C00000381092013880E008951F
:1007CA0080911C38833649F018F48036D9F00895A0
:1007DA00843651F0893679F0089588E198E3809358
:1007EA001D3890931E38089586E098E380931D384B
:1007FA0090931E3808958CE098E380931D38909367
:10080A001E38089582E198E380931D3890931E382C
:02081A0008953F
:10081C0080911C38811104C08BE00E944006089521
:10082C008091233890912438892B11F40E94E50390
:10083C00E0911D38F0911E38809123389091243826
:10084C00E80FF91F80810E94400680912338909117
:0E085C00243801968093233890932438089511
:10086A0040E068ED88E790E00E94310640E068EDDC
:10087A008CE790E00E94310640E068ED80E790E066
:10088A000E94310641E068ED81E690E00E9431065F
:10089A0040E068ED80E690E00E94310640E068EDB5
:0C08AA0082E690E00E94310680E0089594
:1008B600990F0008550FAA0BE0E8FEEF161617066B
:1008C600E807F907C0F012161306E407F50798F0D3
:1008D600621B730B840B950B39F40A2661F0232BEC
:1008E600242B252B21F408950A2609F4A140A69568
:0808F6008FEF811D811D0895A3
:1008FE0057FD9058440F551F59F05F3F71F04795C3
:10090E00880F97FB991F61F09F3F79F087950895A7
:10091E00121613061406551FF2CF4695F1DF08C0C6
:10092E00161617061806991FF1CF869571056105E3
:04093E00089408957C
:10094200E0E1F4E0808188608193E83184E0F80797
:10095200C9F7E0E3F4E0808188608193E83384E0C2
:10096200F807C9F7E0E5F4E0808188608193E83513
:0809720084E0F807C9F70895BD
:10097A00E0E0F6E088E0818399E0918796E592834A
:10098A0013829CE090871386178292ED92871482D5
:10099A00848780E38587168E178E148E158E81E2E2
:0609AA00808380E0089547
:1009B0001F920F920FB60F9211248F93EF93FF9314
:1009C000E0E0F6E080E2858380E1858388E085834E
:1009D000FF91EF918F910F900FBE0F901F90189580
:1009E000E0E0F6E09285916892870E94A6050E9459
:1009F0002D068823E1F3E0E0F6E0608971898289C1
:0A0A00009389258121602583089564
:100A0A000E9436030E947C050E9435040E94D60586
:100A1A000E94B8030E94DE050E94BD040E9463057D
:020A2A0008952D
:100A2C00092E0394000C11F4882352F0BB0F40F4F0
:100A3C00BF2B11F460FF04C06F5F7F4F8F4F9F4F30
:020A4C0008950B
:100A4E001F920F920FB60F9211248F9382E0809314
:0E0A5E0005068F910F900FBE0F901F901895F8
:100A6C001F920F920FB60F9211248F9381E08093F7
:0E0A7C0005068F910F900FBE0F901F901895DA
:100A8A001F920F920FB60F9211248F9381E08093D9
:0E0A9A008A008F910F900FBE0F901F9018953D
:100AA8000E947B0327ED33EA40E250E40E943906B6
:0E0AB80020E03EEF4FEF56E40E943506089511
:100AC60040E068ED80E191E00E943106E0E1F1E06E
:0A0AD60012821382789480E00895E4
:100AE0008091AB0886FF05C08091AB08809581702E
:080AF00001C080E0817008954F
:100AF80040E068ED80E890E00E943106E0E8F0E030
:080B08001186108680E00895BB
:100B10008091AB0886FF04C08091AB08817001C052
:060B200080E081700895E1
:100B2600E0EAF8E082E08287928581E0911101C0D7
:040B360080E00895BE
:100B3A00E0EAF8E08385806C838782E08287838598
:020B4A0008950C
:100B4C00E0E0F6E084876587828581688287089576
:100B5C00E0910A38F0910B38309709F00995089517
:100B6C00E0911638F0911738309709F009950895EF
:100B7C00E0910438F0910538309709F00995089503
:100B8C00E0911038F0911138309709F009950895DB
:100B9C00E0EAF8E085878285836082878585089501
:100BAC0040E068ED80E590E00E94310680E0089519
:0E0BBC00E0EAF0E082E08083818380E008952B
:0E0BCA00109223381092243810921C3808958F
:0E0BD8005058BB27AA270E9420020C94160535
:0E0BE60000240A94161617061806090608952C
:0E0BF40000240A94121613061406050608952E
:0E0C0200E894BB2766277727CB0197F9089562
:0C0C10008091AB08881F8827881F08957A
:0C0C1C0097F99F6780E870E060E00895A1
:0A0C28008091AB0886958170089555
:0A0C32008091AB088295817008954F
:0A0C3C000E943D0680931C380895C5
:0A0C46000E945B0408F481E00895A9
:0A0C50000E945B0408F48FEF089582
:080C5A008091050681700895E8
:080C6200FC0164BF408308950A
:080C6A000E94DE000C94160547
:080C72000E944D010C941605CF
:060C7A008091AD08089511
:060C80000E94CE0508955C
:060C86000E949D05089587
:060C8C009FEF80EC0895CB
:040C92000C940000BE
:010C9600302D
:02000004008278
:090000000000020000C40700002A
:00000001FF
