:100000000C944B000C94C8090C9404090C94C80976
:100010000C94C8090C94C8090C94C8090C94C8091C
:100020000C94C8090C94C8090C94C8090C94C8090C
:100030000C94C8090C94C8090C94C8090C94C809FC
:100040000C94C8090C9459060C9482060C94AF08C1
:100050000C94C8090C9425080C94F5080C94E60837
:100060000C94C8090C94C8090C94C8090C94C809CC
:100070000C94C8090C94C8093800380A80380A382A
:100080001800139438183828803828382C0013A208
:10009000382C3832800011241FBECFEFCDBFDFE3F4
:1000A000DEBFE8E7F0E040E017C0B591A5913591DB
:1000B0002591059107FD0CC095918591EF01F92FD0
:1000C000E82F05900D92A217B307D9F7FE0104C0DF
:1000D0001D92A217B307E1F7E539F40731F70E9443
:0A00E000FF020C947300F894FFCFA8
:1000EA00ABE0B0E0EBE7F0E00C940C086C017B01AC
:1000FA008A01FC0116821782838181FFCCC1CE015D
:10010A0001963C01F6019381F70193FD859193FFD6
:10011A0081917F01882309F4BAC1853239F493FDAC
:10012A00859193FF81917F01853229F4B60190E090
:10013A000E948905E7CF912C212C312CFFE1F31580
:10014A00D8F08B3279F038F4803279F08332A1F426
:10015A00232D20611DC08D3261F0803369F4232D77
:10016A00216016C0832D8260382EE32DE4603E2E76
:10017A002AC0F32DF8601DC037FC2DC020ED280FD2
:10018A002A3040F08E32B9F436FC81C1232D206426
:10019A00322E19C036FE06C08AE0989E200D112420
:1001AA00922E11C0EAE02E9E200D1124222EF32D4C
:1001BA00F0623F2E08C08C3621F4832D8068382ED9
:1001CA0002C0883641F4F70193FD859193FF81912E
:1001DA007F018111B3CF982F9F7D9554933028F4D6
:1001EA000C5F1F4F9FE399830DC0833631F083372D
:1001FA0071F0833509F059C021C0F80180818983E3
:10020A000E5F1F4F88248394912C530113C0280139
:10021A00F2E04F0E511CF801A080B18036FE03C0F7
:10022A00692D70E002C06FEF7FEFC5010E9451098E
:10023A004C018201F32DFF773F2E16C0280122E0E0
:10024A00420E511CF801A080B18036FE03C0692D10
:10025A0070E002C06FEF7FEFC5010E9446094C01B2
:10026A00F32DF0683F2E820133FC1BC0822D90E0F3
:10027A0088169906B0F4B60180E290E00E948905DA
:10028A002A94F4CFF50137FC859137FE81915F01FD
:10029A00B60190E00E94890521102A9421E0821A71
:1002AA0091088114910471F7E8C0843611F08936F7
:1002BA0041F5F80137FE07C060817181828193811F
:1002CA000C5F1F4F08C060817181072E000C880BDC
:1002DA00990B0E5F1F4FF32DFF763F2E97FF09C034
:1002EA0090958095709561957F4F8F4F9F4FF068DD
:1002FA003F2E2AE030E0A3010E946904882E861866
:10030A0045C0853731F4232D2F7EB22E2AE030E006
:10031A0025C0932D997FB92E8F36C1F018F48835F0
:10032A0079F0B5C0803719F0883721F0B0C0E92FCD
:10033A00E061BE2EB4FE0DC0FB2DF460BF2E09C0D5
:10034A0034FE0AC0292F2660B22E06C028E030E00B
:10035A0005C020E130E002C020E132E0F801B7FE3A
:10036A0007C060817181828193810C5F1F4F06C033
:10037A006081718180E090E00E5F1F4FA3010E94AF
:10038A006904882E8618FB2DFF773F2E36FE0DC096
:10039A00232D2E7FA22E891458F434FE0BC032FC72
:1003AA0009C0832D8E7EA82E05C0B82CA32C03C0AD
:1003BA00B82C01C0B92CA4FE0FC0FE01E80DF11D36
:1003CA008081803321F49A2D997EA92E09C0A2FE3C
:1003DA0006C0B394B39404C08A2D867809F0B39406
:1003EA00A3FC11C0A0FE06C0B21488F4280C922CFB
:1003FA009B180EC0B21460F4B60180E290E00E942D
:10040A008905B394F7CFB21418F42B1802C0982CAC
:10041A00212CA4FE10C0B60180E390E00E94890559
:10042A00A2FE17C0A1FC03C088E790E002C088E5DD
:10043A0090E0B6010CC08A2D867859F0A1FE02C060
:10044A008BE201C080E2A7FC8DE2B60190E00E9437
:10045A008905891438F4B60180E390E00E94890581
:10046A009A94F7CF8A94F301E80DF11D8081B601C1
:10047A0090E00E9489058110F5CF222009F442CE2E
:10048A00B60180E290E00E9489052A94F6CFF6012F
:10049A008681978102C08FEF9FEF2B96E2E10C9441
:0204AA003D080B
:1004AC002F923F924F925F926F927F928F929F9278
:1004BC00AF92BF92CF92DF92EF92FF920F931F9366
:1004CC00CF93DF9300D01F92CDB7DEB76B017C01C9
:1004DC004A835B830E947D09162F272E8983092F5F
:1004EC0020E030E04AE754E4C701B6010E94C1099C
:1004FC000E947D096B017C01A8E1BCEF212F322DFC
:10050C004981502F0E947809C60ED71EE81EF91E8D
:10051C000F2EF4E64F2E512C612C712CF02D612FE7
:10052C00722D842F902FA30192010E946C08322E01
:10053C00EA81FB8120830F2EFAE08F2E912CA12CC7
:10054C00B12CF02D612F722D8981902FA501940172
:10055C000E946C0804E6039D20191124EA81FB819A
:10056C002183220F822F880F880F280F121B1283D2
:10057C00C701B601A30192010E946C08122FEA81F7
:10058C00FB812483C701B601A50194010E946C086C
:10059C00019F20191124EA81FB812583220F822FD0
:1005AC00880F880F280FC21AC68217829F01295FF5
:1005BC003F4F8081805D8193E217F307D1F78EE284
:1005CC00EA81FB8183832396CDBFDEBFDF91CF9180
:1005DC001F910F91FF90EF90DF90CF90BF90AF9055
:1005EC009F908F907F906F905F904F903F902F9047
:0205FC00089560
:1005FE00CF93DF93CDB7DEB7A097CDBFDEBF0E94FE
:10060E00C40886E59CE80E940C050E949F090E9482
:10061E00B7070E945C098E010F5F1F4FA8010E9451
:10062E0056021F930F9382E69CE89F938F930E942E
:10063E0099080F900F900F900F906E0129E1C20E46
:10064E00D11C0F2EFFE68F2EFCE89F2EF02D7E0183
:10065E0081E1E80EF11C0F2EFBE7AF2EFCE8BF2E5A
:10066E00F02D085F1F4F0F2EF7E96F2EFCE87F2E3F
:10067E00F02D0E94B70747E068E081E00E94D407A2
:10068E000E94C50520E030E04AE754E40E94C1090B
:10069E00A6010E945602DF92CF929F928F920E94E5
:1006AE00990847E069E081E00E94D4070E94C505E1
:1006BE0020E030E04AE754E40E94C109A7010E94FD
:1006CE005602FF92EF92BF92AF920E94990847E0B6
:1006DE0063E081E00E94D4070E94C50520E030E06F
:1006EE004AE754E40E94C109A8010E9456021F93D2
:1006FE000F937F926F920E9499089FE322E48FE0FE
:10070E00915020408040E1F700C00000CDBFDEBF19
:02071E00B0CF5A
:1007200010C00E948B0958F00E94840940F029F4FF
:100730005F3F29F00C94A50951110C9493090C9476
:10074000C5090E94180768F39923B1F3552391F363
:10075000951B550BBB27AA2762177307840738F030
:100760009F5F5F4F220F331F441FAA1FA9F335D08D
:100770000E2E3AF0E0E832D091505040E695001C41
:10078000CAF72BD0FE2F29D0660F771F881FBB1FFB
:10079000261737074807AB07B0E809F0BB0B802DD9
:1007A000BF01FF2793585F4F3AF09E3F510578F005
:1007B0000C94A5090C9493095F3FE4F3983ED4F39D
:1007C000869577956795B795F7959F5FC9F7880FD9
:1007D000911D9695879597F90895E1E0660F771F2B
:1007E000881FBB1F621773078407BA0720F0621BBC
:0E07F000730B840BBA0BEE1F88F7E09508958B
:1007FE000FC00E94840938F00E948B0920F09523C7
:10080E0011F00C94A5090C94C50911240C949309AC
:10081E000E94180770F3959FC1F3950F50E0551F76
:10082E00629FF001729FBB27F00DB11D639FAA2737
:10083E00F00DB11DAA1F649F6627B00DA11D661F86
:10084E00829F2227B00DA11D621F739FB00DA11DA7
:10085E00621F839FA00D611D221F749F3327A00D61
:10086E00611D231F849F600D211D822F762F6A2FFD
:10087E0011249F5750409AF0F1F088234AF0EE0F62
:10088E00FF1FBB1F661F771F881F91505040A9F78F
:10089E009E3F510580F00C94A5090C9493095F3F7F
:1008AE00E4F3983ED4F3869577956795B795F795CB
:1008BE00E7959F5FC1F7FE2B880F911D9695879543
:0408CE0097F90895F9
:1008D200FA01AA27283051F1203181F1E8946F936F
:1008E2006E7F6E5F7F4F8F4F9F4FAF4FB1E03ED015
:1008F200B4E03CD0670F781F891F9A1FA11D680FB3
:10090200791F8A1F911DA11D6A0F711D811D911DE5
:10091200A11D20D009F468943F912AE0269F11245A
:100922003019305D3193DEF6CF010895462F4770BE
:10093200405D4193B3E00FD0C9F7F6CF462F4F7019
:10094200405D4A3318F0495D31FD4052419302D077
:10095200A9F7EACFB4E0A69597958795779567951D
:10096200BA95C9F700976105710508959B01AC011D
:100972000A2E06945795479537952795BA95C9F744
:0C098200620F731F841F951FA01D0895B5
:10098E00CF93DF930E94F007C0E0D4E01882A0E27C
:10099E00B4E084E08C93E0E4F4E010821C821496C0
:1009AE001C9214971482188A198A1A8A1B8A1C8A16
:1009BE001D8A1E8A8F8B50961C92509751961C92B0
:1009CE00519752961C92529753961C925397549647
:1009DE001C92549755968C93559756961C925697F3
:1009EE0057961C92108A118A128A138A148A158AB3
:1009FE00168A178AE0EEF5E01182108213821482B5
:0A0A0E0015821282DF91CF91089546
:100A1800EF92FF920F931F93CF93DF93E0910638E5
:100A2800F0910738238121FF29C08C01D0E0C0E074
:100A380084E0E82E88E3F82EF80181918F0188235D
:100A480081F0D70112966D917C911397DB0118966E
:100A5800ED91FC9119970995892B71F3DFEFCFEF91
:100A6800EBCF6091063870910738DB011896ED914D
:100A7800FC9119978AE00995892B19F08FEF9FEF60
:100A880002C08D2F9C2FCDB7DEB7E6E00C94490845
:100A9800E89409C097FB3EF4909580957095619510
:100AA8007F4F8F4F9F4F9923A9F0F92F96E9BB27C6
:100AB8009395F695879577956795B795F111F8CF42
:100AC800FAF4BB0F11F460FF1BC06F5F7F4F8F4FAD
:100AD8009F4F16C0882311F096E911C0772321F0A3
:100AE8009EE8872F762F05C0662371F096E8862F3B
:100AF80070E060E02AF09A95660F771F881FDAF792
:0A0B0800880F9695879597F90895D8
:100B12000F931F93CF93DF93FB01238121FD03C02A
:100B22008FEF9FEF2CC022FF16C046815781248190
:100B320035814217530744F4A081B1819D012F5F93
:100B42003F4F208331838C93268137812F5F3F4F24
:100B52002683378314C08B01EC01FB010084F185ED
:100B6200E02D0995892BE1F6D80116968D919C917D
:100B72001797019616968D939C931797CE01DF9146
:080B8200CF911F910F9108951E
:100B8A008F929F92AF92BF92CF92DF92EF92FF9293
:100B9A004B015C01C0900038D0900138E0900238D7
:100BAA00F090033820E030E0A901C701B6010E94A5
:100BBA00B009882379F0C501B4010E944E05A70146
:100BCA0096010E94C10920E030E040E856E30E9405
:100BDA00C10904C060E070E080E89FEBFF90EF90ED
:0E0BEA00DF90CF90BF90AF909F908F900895B6
:100BF8000E94200788F09F5798F0B92F9927B7517E
:100C0800B0F0E1F0660F771F881F991F1AF0BA95A8
:100C1800C9F714C0B13091F00E949209B1E008956B
:100C28000C949209672F782F8827B85F39F0B93F5D
:100C3800CCF3869577956795B395D9F73EF490955B
:0E0C48008095709561957F4F8F4F9F4F089557
:100C5600696E697469616C697A6564005672656665
:100C66003A2025732056200A00492A523A20257335
:100C7600206D560A00436F6D70656E736163696F10
:100C86006E206361626C65733A202573206D560A87
:100C96000053616C6964612053616C6C656E2D4B09
:0B0CA60065793A202573206D560A0086
:100CB2001F920F920FB60F9211242F933F934F93CF
:100CC2005F936F937F938F939F93AF93BF93EF93B2
:100CD200FF93E0912A38F0912B38309709F009956B
:100CE200FF91EF91BF91AF919F918F917F916F9102
:100CF2005F914F913F912F910F900FBE0F901F90D8
:020D0200189542
:100D04001F920F920FB60F9211242F933F934F937C
:100D14005F936F937F938F939F93AF93BF93EF935F
:100D2400FF93E0912838F0912938309709F009951C
:100D3400FF91EF91BF91AF919F918F917F916F91AF
:100D44005F914F913F912F910F900FBE0F901F9085
:020D54001895F0
:100D560040E068ED88E790E00E94B50940E068ED64
:100D66008CE790E00E94B50940E068ED80E790E0EE
:100D76000E94B50941E068ED81E690E00E94B50960
:100D860040E068ED80E690E00E94B50940E068ED3D
:0C0D960082E690E00E94B50980E008951C
:100DA200990F0008550FAA0BE0E8FEEF161617067A
:100DB200E807F907C0F012161306E407F50798F0E2
:100DC200621B730B840B950B39F40A2661F0232BFB
:100DD200242B252B21F408950A2609F4A140A69577
:080DE2008FEF811D811D0895B2
:100DEA00E0E0F8E087E490E18087918780ED8583F1
:100DFA0080EC868383E0878313861486168615869D
:100E0A00109230381092313810922F3810922D38B3
:100E1A0010922E3810922C388AE098E38093063884
:060E2A00909307380895C3
:100E300057FD9058440F551F59F05F3F71F047958B
:100E4000880F97FB991F61F09F3F79F08795089570
:100E5000121613061406551FF2CF4695F1DF08C08F
:100E6000161617061806991FF1CF869571056105AC
:040E70000894089545
:100E7400A1E21A2EAA1BBB1BFD010DC0AA1FBB1F9A
:100E8400EE1FFF1FA217B307E407F50720F0A21B0C
:100E9400B30BE40BF50B661F771F881F991F1A9479
:100EA40069F760957095809590959B01AC01BD01A3
:040EB400CF010895CD
:100EB80080912C38882389F0E0912D38EF5FE77016
:100EC800E0932D38F0E0E85EF74C808180930208CB
:100ED80080912C38815080932C3880912C38811146
:0E0EE80005C0E0E0F8E085818F7D85830895E8
:100EF60020912E382F5F277090912C389830E1F38F
:100F0600E22FF0E0E85EF74C808320932E380FB690
:100F1600F8940F9280912C388F5F80932C380F9025
:0E0F26000FBEE0E0F8E08581806285830895CB
:100F3400E0E0F6E088E0818389E0818780E58283D0
:100F440013828CE0808781E68387178282E582871B
:100F5400148288E4848787E48587168E178E148E1E
:0A0F6400158E81E2808380E008957D
:100F6E0063E380E00E9455080E944C059B01AC0192
:100F7E006FE672E183E89FE30E94BD0920E030E056
:100F8E0040E857E40E94C10960930038709301381D
:0A0F9E008093023890930338089501
:100FA800E0E0F6E092859168928720E4829FC00194
:100FB8001124842B6487858782ED82870E94B90972
:100FC8008823E1F3E0E0F6E06089718982899389FA
:080FD8002581216025830895A5
:100FE000E0E1F4E0808188608193E83184E0F807F3
:100FF000C9F7E0E3F4E0808188608193E83384E01E
:10100000F807C9F7E0E5F4E0808188608193E8356E
:0810100084E0F807C9F7089518
:101018002F923F924F925F926F927F928F929F9200
:10102800AF92BF92CF92DF92EF92FF920F931F93EE
:10103800CF93DF93CDB7DEB7CA1BDB0BCDBFDEBFC7
:02104800099409
:10104A001F920F920FB60F9211248F93EF93FF9373
:10105A00E0E0F6E080E2858380E1858388E08583AD
:10106A00FF91EF918F910F900FBE0F901F901895DF
:10107A002A88398848885F846E847D848C849B841E
:10108A00AA84B984C884DF80EE80FD800C811B812C
:10109A00AA81B981CE0FD11DCDBFDEBFED01089562
:1010AA0020E4829FC0011124862BE0E0F6E08487C9
:1010BA0082E582870E94B9098823E1F3E0E0F6E03D
:0E10CA00608971898289938921E025830895C8
:1010D800052E97FB1EF400940E946D0957FD07D05A
:1010E8000E943A0707FC03D04EF40C946D09509502
:0E10F8004095309521953F4F4F4F5F4F089523
:1011060090910008E0913138EF5FE77080913038B8
:10111600E81759F0E0933138F0E0E05EF74C908341
:0C11260080912F388F5F80932F38089540
:10113200A0E0B0E0EFE9F8E00C941C08AE014B5FD0
:101142005F4FFA0161917191AF01809106389091E0
:0C11520007380E947500E2E00C944D0884
:10115E001F920F920FB60F9211248F93EF93FF935E
:10116E00E0E0F8E0848180648483FF91EF918F91B9
:0A117E000F900FBE0F901F90189500
:101188000E94C7040E942F090E94AB060E946509AD
:101198000E9499090E949A070E9422090E94F50656
:0211A8000895A8
:1011AA00092E0394000C11F4882352F0BB0F40F46B
:1011BA00BF2B11F460FF04C06F5F7F4F8F4F9F4FAB
:0211CA00089586
:1011CC001F920F920FB60F9211248F9382E080938F
:0E11DC0005068F910F900FBE0F901F90189573
:1011EA001F920F920FB60F9211248F9381E0809372
:0E11FA0005068F910F900FBE0F901F90189555
:101208001F920F920FB60F9211248F9381E0809353
:0E1218008A008F910F900FBE0F901F901895B7
:10122600A29FB001B39FC001A39F700D811D112421
:0E123600911DB29F700D811D1124911D089510
:1012440040E068ED80E191E00E94B509E0E1F1E061
:0A12540012821382789480E008955E
:10125E0040E068ED80E890E00E94B509E0E8F0E03B
:08126E001186108680E008954E
:101276000E941309A59F900DB49F900DA49F800D09
:06128600911D11240895E2
:10128C00FC010590615070400110D8F78095909545
:06129C008E0F9F1F089554
:1012A200FC016150704001900110D8F78095909533
:0612B2008E0F9F1F08953E
:1012B800609100387091013880910238909103381C
:0212C800089587
:1012CA0040E068ED80E590E00E94B50980E008956D
:1012DA0090958095709561957F4F8F4F9F4F089598
:1012EA00B7FF0C943B090E943B09821B930B08959C
:0E12FA000E94FC056894B1110C9493090895AC
:0E13080000240A941616170618060906089502
:0E13160000240A941216130614060506089504
:0E132400E894BB2766277727CB0197F9089539
:0C133200E0EAF0E01082118280E00895F3
:0C133E00E0E0F6E080818160808308958B
:0C134A0097F99F6780E870E060E008956C
:0A1356000E947B0780E090E00895FC
:0A1360000E94D10608F481E0089510
:08136A00FC0164BF40830895FB
:081372008091050681700895C9
:08137A000E9490030C94D508B9
:081382000E94FF030C94D50842
:06138A009FEF80EC0895C6
:041390000C940000B9
:0E1394000000000200000000AB090000000095
:0213A2005C07E6
:0213A4008308BC
:02000004008278
:090000000000020000C40700002A
:00000001FF
