:100000000C9442000C94A4060C94B0050C94A40625
:100010000C94A4060C94A4060C94A4060C94A406B8
:100020000C94A4060C94A4060C94A4060C94A406A8
:100030000C94A4060C94A4060C9419020C94A40627
:100040000C94A4060C94A4060C94A4060C94A40688
:100050000C94A4060C9458050C94A1050C949205DC
:100060000C94A4060C94A4060C94A4060C94A40668
:100070000C94A4060C94A406380038258038253842
:1000800026000D4C11241FBECFEFCDBFDFE3DEBF36
:10009000E8E7F0E040E017C0B591A59135912591D2
:1000A000059107FD0CC095918591EF01F92FE82F7F
:1000B00005900D92A217B307D9F7FE0104C01D9257
:1000C000A217B307E1F7E438F40731F70E94DB0029
:0800D0000C946A00F894FFCFC4
:1000D80010C00E944F0658F00E94480640F029F4CC
:1000E8005F3F29F00C94690651110C9457060C9443
:1000F800A1060E94C20468F39923B1F3552391F332
:10010800951B550BBB27AA2762177307840738F07E
:100118009F5F5F4F220F331F441FAA1FA9F335D0DB
:100128000E2E3AF0E0E832D091505040E695001C8F
:10013800CAF72BD0FE2F29D0660F771F881FBB1F49
:10014800261737074807AB07B0E809F0BB0B802D27
:10015800BF01FF2793585F4F3AF09E3F510578F053
:100168000C9469060C9457065F3FE4F3983ED4F369
:10017800869577956795B795F7959F5FC9F7880F27
:10018800911D9695879597F90895E1E0660F771F79
:10019800881FBB1F621773078407BA0720F0621B0A
:0E01A800730B840BBA0BEE1F88F7E0950895D9
:1001B6000E94700583E393E1A6E8B3E480931038C8
:1001C60090931138A0931238B09313388093023865
:1001D60090930338A0930438B093053880930C3875
:1001E60090930D38A0930E38B0930F38809318383B
:1001F60090931938A0931A38B0931B382FE382E4F2
:100206009FE0215080409040E1F700C000000E942E
:10021600E40481E090E00E94C60360931038709376
:100226001138809312389093133884E090E00E943E
:10023600C60360930C3870930D3880930E389093F4
:100246000F3889E090E00E94C603609318387093D7
:10025600193880931A3890931B3883E090E00E94F7
:10026600C6036093023870930338809304389093E2
:1002760005380E94E4042FE583EE96E12150804084
:0A0286009040E1F700C00000C4CF73
:100290000FC00E94480638F00E944F0620F09523B8
:1002A00011F00C9469060C94A10611240C945706C5
:1002B0000E94C20470F3959FC1F3950F50E0551F43
:1002C000629FF001729FBB27F00DB11D639FAA27AB
:1002D000F00DB11DAA1F649F6627B00DA11D661FFA
:1002E000829F2227B00DA11D621F739FB00DA11D1B
:1002F000621F839FA00D611D221F749F3327A00DD5
:10030000611D231F849F600D211D822F762F6A2F70
:1003100011249F5750409AF0F1F088234AF0EE0FD5
:10032000FF1FBB1F661F771F881F91505040A9F702
:100330009E3F510580F00C9469060C9457065F3F70
:10034000E4F3983ED4F3869577956795B795F7953E
:10035000E7959F5FC1F7FE2B880F911D96958795B6
:0403600097F908956C
:1003640011C00E94480638F00E944F0620F039F46C
:100374009F3F19F426F40C94A1060EF4E095E7FBD4
:100384000C946906E92F0E94C20458F3BA17620755
:1003940073078407950720F079F4A6F50C945606A4
:1003A4000EF4E0950B2EBA2FA02D0B01B90190018C
:1003B4000C01CA01A0011124FF27591B99F0593FD0
:1003C40050F4503E68F11A16F040A22F232F342F18
:1003D4004427585FF3CF469537952795A795F04066
:1003E4005395C9F77EF41F16BA0B620B730B840B7B
:1003F400BAF09150A1F0FF0FBB1F661F771F881F33
:10040400C2F70EC0BA0F621F731F841F48F487958A
:1004140077956795B795F7959E3F08F0B0CF93957C
:0E042400880F08F09927EE0F97958795089599
:100432001F920F920FB60F9211242F933F934F9357
:100442005F936F937F938F939F93AF93BF93EF933A
:10045200FF930E94E405882361F00E941A0683E05C
:100462008093AA080E946F06882329F10E940A0637
:1004720022C00E9463068823B1F00E946F0688237F
:1004820061F00E947406811103C00E940A0613C023
:100492000E943A060E94F9050EC00E94120683E0ED
:1004A2008093AA0808C00E94CC05882321F00E94EC
:1004B20022060E94EF05FF91EF91BF91AF919F91AC
:1004C2008F917F916F915F914F913F912F910F90FB
:0804D2000FBE0F901F9018955A
:1004DA00CF92DF92EF92FF9246E06091253881E059
:1004EA000E941F05AB01BC0181E00E94BC0220E012
:1004FA0030E04AE754E40E94940620E030E040E00D
:10050A0051E40E94410620E030E048EC52E40E94A7
:10051A00410628EB3EE145EC5EE30E9490066B0142
:10052A007C0120E030E040EA51EC0E947E068823FC
:10053A0074F020E030E046E154E4C701B6010E94BD
:10054A00830618163CF4C12CD12C760103C0C12CA9
:10055A00D12C760123E333E948E853E4C701B60115
:0E056A000E944206FF90EF90DF90CF90089520
:100578008F929F92AF92BF92CF92DF92EF92FF92AB
:10058800CF93C82F4A015B01C0901C38D0901D380A
:10059800E0901E38F0901F3820E030E0A901C70134
:1005A800B6010E947E06882301F1CC2379F0C501AB
:1005B800B4010E948B03A70196010E94940620E0D3
:1005C80030E040E056E30E94940613C0C501B40130
:1005D8000E948B03A70196010E94940620E030E058
:1005E80040E058E30E94940604C060E070E080E8B0
:1005F8009FEBCF91FF90EF90DF90CF90BF90AF909F
:060608009F908F90089501
:10060E00CF93DF930E943C05C0E0D4E01882A0E2B5
:10061E00B4E01C92E0E4F4E010821C8284E01496B4
:10062E008C9314971482188A198A1A8A8B8B8C8B46
:10063E008D8B8E8B8F8B50961C92509751961C9251
:10064E00519752961C92529753961C9253975496CA
:10065E008C93549755968C93559756961C92569705
:10066E0057961C92108A118A128A138A148A158A36
:10067E00168A178AE0EEF5E0118210821382148238
:0A068E0015821282DF91CF910895CA
:10069800CF92DF92EF92FF9240E36091253880E09D
:1006A8000E941F05AB01BC0180E00E94BC022AE049
:1006B80037ED43EA5BE30E9490066B017C0120E082
:1006C80030E040E05FE30E947E06882374F020E07B
:1006D80030E046E954E4C701B6010E9483061816C3
:1006E8003CF4C12CD12C760103C0C12CD12C76014D
:1006F80023E333E948E853E4C701B6010E94420600
:0A070800FF90EF90DF90CF9008956E
:10071200E89409C097FB3EF4909580957095619599
:100722007F4F8F4F9F4F9923A9F0F92F96E9BB274F
:100732009395F695879577956795B795F111F8CFCB
:10074200FAF4BB0F11F460FF1BC06F5F7F4F8F4F36
:100752009F4F16C0882311F096E911C0772321F02C
:100762009EE8872F762F05C0662371F096E8862FC4
:1007720070E060E02AF09A95660F771F881FDAF71B
:0A078200880F9695879597F9089562
:10078C0084309105F9F034F48130910549F00397E8
:10079C0099F024C089309105D9F0819739F01EC0A9
:1007AC0088E0809325380E944C03089589E080935B
:1007BC0025380E946D02089583E0809325380E94AD
:1007CC004C03089584E0809325380E944C030895CF
:1007DC0085E0809325380E944C03089580E3809334
:0A07EC00253860E070E0CB010895AD
:1007F600E0EAF8E01082128282E0848789E1868747
:1008060081EC818712861586138689E796E08093A8
:1008160016389093173881E594E080930A389093C0
:100826000B3810920838109209388EE996E08093BA
:100836001438909315381092063810920738109293
:0A08460000381092013880E0089598
:1008500080912038873581F018F4853531F008957E
:10086000883589F08935B1F0089580E198E3809367
:10087000213890932238089582E098E380932138BC
:100880009093223808958CE098E3809321389093D8
:100890002238089588E198E3809321389093223894
:0208A0000895B9
:1008A20080912038811104C08CE00E949B0608953B
:1008B2008091233890912438892B11F40E942804C6
:1008C200E0912138F0912238809123389091243898
:1008D200E80FF91F80810E949B0680912338909136
:0E08E20024380196809323389093243808958B
:1008F00040E068ED88E790E00E94880640E068EDFF
:100900008CE790E00E94880640E068ED80E790E088
:100910000E94880641E068ED81E690E00E9488062A
:1009200040E068ED80E690E00E94880640E068EDD7
:0C09300082E690E00E94880680E00895B6
:10093C00990F0008550FAA0BE0E8FEEF16161706E4
:10094C00E807F907C0F012161306E407F50798F04C
:10095C00621B730B840B950B39F40A2661F0232B65
:10096C00242B252B21F408950A2609F4A140A695E1
:08097C008FEF811D811D08951C
:1009840057FD9058440F551F59F05F3F71F047953C
:10099400880F97FB991F61F09F3F79F08795089521
:1009A400121613061406551FF2CF4695F1DF08C040
:1009B400161617061806991FF1CF8695710561055D
:0409C40008940895F6
:1009C80040E363E380E00E941F050E9489039B01C6
:1009D800AC0161E875E983E89FE30E94900620E096
:1009E80030E040E057E40E94940660931C3870930E
:0C09F8001D3880931E3890931F3808951E
:100A0400E0E0F6E088E0818389E0818780E5828305
:100A140013828CE0808781E88387178282ED828746
:100A2400148288E4848786E48587168E178E148E54
:0A0A3400158E81E2808380E00895B2
:100A3E00262FE0E0F6E092859168928730E4839F5E
:100A4E00C0011124642F682B822F0E9402060E947F
:100A5E008C068823E1F3E0E0F6E0608971898289F3
:0A0A6E0093892581216025830895F6
:100A7800E0E1F4E0808188608193E83184E0F80760
:100A8800C9F7E0E3F4E0808188608193E83384E08B
:100A9800F807C9F7E0E5F4E0808188608193E835DC
:080AA80084E0F807C9F7089586
:100AB0001F920F920FB60F9211248F93EF93FF9313
:100AC000E0E0F6E080E2858380E1858388E085834D
:100AD000FF91EF918F910F900FBE0F901F9018957F
:100AE0000E9407030E94D8050E9478040E943206E3
:100AF0000E94FB030E945D060E9402050E94BF0542
:020B0000089556
:100B0200092E0394000C11F4882352F0BB0F40F419
:100B1200BF2B11F460FF04C06F5F7F4F8F4F9F4F59
:020B2200089534
:100B24001F920F920FB60F9211248F9382E080933D
:0E0B340005068F910F900FBE0F901F90189521
:100B42001F920F920FB60F9211248F9381E0809320
:0E0B520005068F910F900FBE0F901F90189503
:100B60001F920F920FB60F9211248F9381E0809302
:0E0B70008A008F910F900FBE0F901F90189566
:100B7E0040E068ED80E191E00E948806E0E1F1E05E
:0A0B8E0012821382789480E008952B
:100B98008091AB0886FF05C08091AB088095817075
:080BA80001C080E08170089596
:100BB00040E068ED80E890E00E948806E0E8F0E020
:080BC0001186108680E0089503
:100BC8008091AB0886FF04C08091AB08817001C09A
:060BD80080E08170089529
:100BDE00E0EAF8E082E08287928581E0911101C01F
:040BEE0080E0089506
:100BF200E0EAF8E08385806C838782E082878385E0
:020C0200089553
:100C0400E0E0F6E0848765878285816882870895BD
:100C1400E0910A38F0910B38309709F0099508955E
:100C2400E0911638F0911738309709F00995089536
:100C3400E0910838F0910938309709F00995089542
:100C4400E0911438F0911538309709F0099508951A
:100C5400E0EAF8E085878285836082878585089548
:100C640040E068ED80E590E00E94880680E0089509
:0E0C74001092233810922438109220380895E0
:0E0C82005058BB27AA270E94B2010C9481058E
:0E0C900000240A941616170618060906089581
:0E0C9E0000240A941216130614060506089583
:0E0CAC00E894BB2766277727CB0197F90895B8
:0C0CBA00E0EAF0E01082118280E0089572
:0C0CC6008091AB08881F8827881F0895C4
:0C0CD20097F99F6780E870E060E00895EB
:0A0CDE008091AB088695817008959F
:0A0CE8008091AB0882958170089599
:0A0CF2000E949806809320380895B0
:0A0CFC000E949E0408F481E00895B0
:0A0D06000E949E0408F48FEF089588
:080D1000FC0164BF408308955B
:080D1800809105068170089529
:080D20000E946C000C94810597
:080D28000E9448010C948105B2
:060D30008091AD0808955A
:060D36000E942A06089548
:060D3C000E94F905089574
:060D42009FEF80EC089514
:040D48000C94000007
:010D4C003076
:02000004008278
:090000000000020000C40700002A
:00000001FF
